
Morsegeneraator.elf:     file format elf32-avr

Sections:
Idx Name          Size      VMA       LMA       File off  Algn
  0 .data         000000f2  00800100  000003e2  00000476  2**0
                  CONTENTS, ALLOC, LOAD, DATA
  1 .text         000003e2  00000000  00000000  00000094  2**1
                  CONTENTS, ALLOC, LOAD, READONLY, CODE
  2 .bss          00000062  008001f2  008001f2  00000568  2**0
                  ALLOC
  3 .comment      00000030  00000000  00000000  00000568  2**0
                  CONTENTS, READONLY
  4 .note.gnu.avr.deviceinfo 00000040  00000000  00000000  00000598  2**2
                  CONTENTS, READONLY
  5 .debug_aranges 00000090  00000000  00000000  000005d8  2**0
                  CONTENTS, READONLY, DEBUGGING
  6 .debug_info   00000f2f  00000000  00000000  00000668  2**0
                  CONTENTS, READONLY, DEBUGGING
  7 .debug_abbrev 00000c6f  00000000  00000000  00001597  2**0
                  CONTENTS, READONLY, DEBUGGING
  8 .debug_line   00000497  00000000  00000000  00002206  2**0
                  CONTENTS, READONLY, DEBUGGING
  9 .debug_frame  000001dc  00000000  00000000  000026a0  2**2
                  CONTENTS, READONLY, DEBUGGING
 10 .debug_str    00000651  00000000  00000000  0000287c  2**0
                  CONTENTS, READONLY, DEBUGGING
 11 .debug_loc    0000036c  00000000  00000000  00002ecd  2**0
                  CONTENTS, READONLY, DEBUGGING
 12 .debug_ranges 00000080  00000000  00000000  00003239  2**0
                  CONTENTS, READONLY, DEBUGGING

Disassembly of section .text:

00000000 <__vectors>:
   0:	4b c0       	rjmp	.+150    	; 0x98 <__ctors_end>
   2:	00 00       	nop
   4:	64 c0       	rjmp	.+200    	; 0xce <__bad_interrupt>
   6:	00 00       	nop
   8:	62 c0       	rjmp	.+196    	; 0xce <__bad_interrupt>
   a:	00 00       	nop
   c:	60 c0       	rjmp	.+192    	; 0xce <__bad_interrupt>
   e:	00 00       	nop
  10:	5e c0       	rjmp	.+188    	; 0xce <__bad_interrupt>
  12:	00 00       	nop
  14:	5c c0       	rjmp	.+184    	; 0xce <__bad_interrupt>
  16:	00 00       	nop
  18:	5a c0       	rjmp	.+180    	; 0xce <__bad_interrupt>
  1a:	00 00       	nop
  1c:	58 c0       	rjmp	.+176    	; 0xce <__bad_interrupt>
  1e:	00 00       	nop
  20:	56 c0       	rjmp	.+172    	; 0xce <__bad_interrupt>
  22:	00 00       	nop
  24:	54 c0       	rjmp	.+168    	; 0xce <__bad_interrupt>
  26:	00 00       	nop
  28:	52 c0       	rjmp	.+164    	; 0xce <__bad_interrupt>
  2a:	00 00       	nop
  2c:	50 c0       	rjmp	.+160    	; 0xce <__bad_interrupt>
  2e:	00 00       	nop
  30:	4e c0       	rjmp	.+156    	; 0xce <__bad_interrupt>
  32:	00 00       	nop
  34:	4c c0       	rjmp	.+152    	; 0xce <__bad_interrupt>
  36:	00 00       	nop
  38:	4a c0       	rjmp	.+148    	; 0xce <__bad_interrupt>
  3a:	00 00       	nop
  3c:	48 c0       	rjmp	.+144    	; 0xce <__bad_interrupt>
  3e:	00 00       	nop
  40:	46 c0       	rjmp	.+140    	; 0xce <__bad_interrupt>
  42:	00 00       	nop
  44:	44 c0       	rjmp	.+136    	; 0xce <__bad_interrupt>
  46:	00 00       	nop
  48:	42 c0       	rjmp	.+132    	; 0xce <__bad_interrupt>
  4a:	00 00       	nop
  4c:	40 c0       	rjmp	.+128    	; 0xce <__bad_interrupt>
  4e:	00 00       	nop
  50:	3e c0       	rjmp	.+124    	; 0xce <__bad_interrupt>
  52:	00 00       	nop
  54:	3c c0       	rjmp	.+120    	; 0xce <__bad_interrupt>
  56:	00 00       	nop
  58:	3a c0       	rjmp	.+116    	; 0xce <__bad_interrupt>
  5a:	00 00       	nop
  5c:	38 c0       	rjmp	.+112    	; 0xce <__bad_interrupt>
  5e:	00 00       	nop
  60:	36 c0       	rjmp	.+108    	; 0xce <__bad_interrupt>
  62:	00 00       	nop
  64:	8b c0       	rjmp	.+278    	; 0x17c <__vector_25>
  66:	00 00       	nop
  68:	32 c0       	rjmp	.+100    	; 0xce <__bad_interrupt>
  6a:	00 00       	nop
  6c:	30 c0       	rjmp	.+96     	; 0xce <__bad_interrupt>
  6e:	00 00       	nop
  70:	2e c0       	rjmp	.+92     	; 0xce <__bad_interrupt>
  72:	00 00       	nop
  74:	48 c1       	rjmp	.+656    	; 0x306 <__vector_29>
  76:	00 00       	nop
  78:	2a c0       	rjmp	.+84     	; 0xce <__bad_interrupt>
  7a:	00 00       	nop
  7c:	28 c0       	rjmp	.+80     	; 0xce <__bad_interrupt>
  7e:	00 00       	nop
  80:	a7 c0       	rjmp	.+334    	; 0x1d0 <__vector_32>
  82:	00 00       	nop
  84:	24 c0       	rjmp	.+72     	; 0xce <__bad_interrupt>
  86:	00 00       	nop
  88:	22 c0       	rjmp	.+68     	; 0xce <__bad_interrupt>
  8a:	00 00       	nop
  8c:	20 c0       	rjmp	.+64     	; 0xce <__bad_interrupt>
  8e:	00 00       	nop
  90:	1e c0       	rjmp	.+60     	; 0xce <__bad_interrupt>
  92:	00 00       	nop
  94:	1c c0       	rjmp	.+56     	; 0xce <__bad_interrupt>
	...

00000098 <__ctors_end>:
  98:	11 24       	eor	r1, r1
  9a:	1f be       	out	0x3f, r1	; 63
  9c:	cf ef       	ldi	r28, 0xFF	; 255
  9e:	d0 e1       	ldi	r29, 0x10	; 16
  a0:	de bf       	out	0x3e, r29	; 62
  a2:	cd bf       	out	0x3d, r28	; 61

000000a4 <__do_copy_data>:
  a4:	11 e0       	ldi	r17, 0x01	; 1
  a6:	a0 e0       	ldi	r26, 0x00	; 0
  a8:	b1 e0       	ldi	r27, 0x01	; 1
  aa:	e2 ee       	ldi	r30, 0xE2	; 226
  ac:	f3 e0       	ldi	r31, 0x03	; 3
  ae:	02 c0       	rjmp	.+4      	; 0xb4 <__do_copy_data+0x10>
  b0:	05 90       	lpm	r0, Z+
  b2:	0d 92       	st	X+, r0
  b4:	a2 3f       	cpi	r26, 0xF2	; 242
  b6:	b1 07       	cpc	r27, r17
  b8:	d9 f7       	brne	.-10     	; 0xb0 <__do_copy_data+0xc>

000000ba <__do_clear_bss>:
  ba:	22 e0       	ldi	r18, 0x02	; 2
  bc:	a2 ef       	ldi	r26, 0xF2	; 242
  be:	b1 e0       	ldi	r27, 0x01	; 1
  c0:	01 c0       	rjmp	.+2      	; 0xc4 <.do_clear_bss_start>

000000c2 <.do_clear_bss_loop>:
  c2:	1d 92       	st	X+, r1

000000c4 <.do_clear_bss_start>:
  c4:	a4 35       	cpi	r26, 0x54	; 84
  c6:	b2 07       	cpc	r27, r18
  c8:	e1 f7       	brne	.-8      	; 0xc2 <.do_clear_bss_loop>
  ca:	7d d1       	rcall	.+762    	; 0x3c6 <main>
  cc:	88 c1       	rjmp	.+784    	; 0x3de <_exit>

000000ce <__bad_interrupt>:
  ce:	98 cf       	rjmp	.-208    	; 0x0 <__vectors>

000000d0 <putCharacter>:

void buzzerOFF(){
	DDRB &= !(1 << PINB6);
}
void switchBuzzer(){
	DDRB ^= (1 << PINB6);
  d0:	40 91 f3 01 	lds	r20, 0x01F3	; 0x8001f3 <inIndex>
  d4:	20 91 f2 01 	lds	r18, 0x01F2	; 0x8001f2 <__data_end>
  d8:	90 91 f3 01 	lds	r25, 0x01F3	; 0x8001f3 <inIndex>
  dc:	50 91 f2 01 	lds	r21, 0x01F2	; 0x8001f2 <__data_end>
  e0:	31 e0       	ldi	r19, 0x01	; 1
  e2:	91 11       	cpse	r25, r1
  e4:	30 e0       	ldi	r19, 0x00	; 0
  e6:	91 e0       	ldi	r25, 0x01	; 1
  e8:	54 31       	cpi	r21, 0x14	; 20
  ea:	09 f0       	breq	.+2      	; 0xee <putCharacter+0x1e>
  ec:	90 e0       	ldi	r25, 0x00	; 0
  ee:	93 23       	and	r25, r19
  f0:	09 f0       	breq	.+2      	; 0xf4 <putCharacter+0x24>
  f2:	43 c0       	rjmp	.+134    	; 0x17a <putCharacter+0xaa>
  f4:	30 e0       	ldi	r19, 0x00	; 0
  f6:	21 50       	subi	r18, 0x01	; 1
  f8:	31 09       	sbc	r19, r1
  fa:	50 e0       	ldi	r21, 0x00	; 0
  fc:	24 17       	cp	r18, r20
  fe:	35 07       	cpc	r19, r21
 100:	e1 f1       	breq	.+120    	; 0x17a <putCharacter+0xaa>
 102:	9f e9       	ldi	r25, 0x9F	; 159
 104:	98 0f       	add	r25, r24
 106:	9a 31       	cpi	r25, 0x1A	; 26
 108:	10 f0       	brcs	.+4      	; 0x10e <putCharacter+0x3e>
 10a:	80 52       	subi	r24, 0x20	; 32
 10c:	01 c0       	rjmp	.+2      	; 0x110 <putCharacter+0x40>
 10e:	80 54       	subi	r24, 0x40	; 64
 110:	8b 33       	cpi	r24, 0x3B	; 59
 112:	88 f0       	brcs	.+34     	; 0x136 <putCharacter+0x66>
 114:	e0 91 f3 01 	lds	r30, 0x01F3	; 0x8001f3 <inIndex>
 118:	24 e0       	ldi	r18, 0x04	; 4
 11a:	e2 9f       	mul	r30, r18
 11c:	f0 01       	movw	r30, r0
 11e:	11 24       	eor	r1, r1
 120:	ec 50       	subi	r30, 0x0C	; 12
 122:	fe 4f       	sbci	r31, 0xFE	; 254
 124:	82 e0       	ldi	r24, 0x02	; 2
 126:	90 e0       	ldi	r25, 0x00	; 0
 128:	a0 e0       	ldi	r26, 0x00	; 0
 12a:	b0 e0       	ldi	r27, 0x00	; 0
 12c:	80 83       	st	Z, r24
 12e:	91 83       	std	Z+1, r25	; 0x01
 130:	a2 83       	std	Z+2, r26	; 0x02
 132:	b3 83       	std	Z+3, r27	; 0x03
 134:	16 c0       	rjmp	.+44     	; 0x162 <putCharacter+0x92>
 136:	90 91 f3 01 	lds	r25, 0x01F3	; 0x8001f3 <inIndex>
 13a:	24 e0       	ldi	r18, 0x04	; 4
 13c:	82 02       	muls	r24, r18
 13e:	f0 01       	movw	r30, r0
 140:	11 24       	eor	r1, r1
 142:	eb 5f       	subi	r30, 0xFB	; 251
 144:	fe 4f       	sbci	r31, 0xFE	; 254
 146:	40 81       	ld	r20, Z
 148:	51 81       	ldd	r21, Z+1	; 0x01
 14a:	62 81       	ldd	r22, Z+2	; 0x02
 14c:	73 81       	ldd	r23, Z+3	; 0x03
 14e:	84 e0       	ldi	r24, 0x04	; 4
 150:	98 9f       	mul	r25, r24
 152:	f0 01       	movw	r30, r0
 154:	11 24       	eor	r1, r1
 156:	ec 50       	subi	r30, 0x0C	; 12
 158:	fe 4f       	sbci	r31, 0xFE	; 254
 15a:	40 83       	st	Z, r20
 15c:	51 83       	std	Z+1, r21	; 0x01
 15e:	62 83       	std	Z+2, r22	; 0x02
 160:	73 83       	std	Z+3, r23	; 0x03
 162:	80 91 f3 01 	lds	r24, 0x01F3	; 0x8001f3 <inIndex>
 166:	88 31       	cpi	r24, 0x18	; 24
 168:	19 f4       	brne	.+6      	; 0x170 <putCharacter+0xa0>
 16a:	10 92 f3 01 	sts	0x01F3, r1	; 0x8001f3 <inIndex>
 16e:	08 95       	ret
 170:	80 91 f3 01 	lds	r24, 0x01F3	; 0x8001f3 <inIndex>
 174:	8f 5f       	subi	r24, 0xFF	; 255
 176:	80 93 f3 01 	sts	0x01F3, r24	; 0x8001f3 <inIndex>
 17a:	08 95       	ret

0000017c <__vector_25>:
 17c:	1f 92       	push	r1
 17e:	0f 92       	push	r0
 180:	0f b6       	in	r0, 0x3f	; 63
 182:	0f 92       	push	r0
 184:	11 24       	eor	r1, r1
 186:	2f 93       	push	r18
 188:	3f 93       	push	r19
 18a:	4f 93       	push	r20
 18c:	5f 93       	push	r21
 18e:	6f 93       	push	r22
 190:	7f 93       	push	r23
 192:	8f 93       	push	r24
 194:	9f 93       	push	r25
 196:	af 93       	push	r26
 198:	bf 93       	push	r27
 19a:	ef 93       	push	r30
 19c:	ff 93       	push	r31
 19e:	80 91 ce 00 	lds	r24, 0x00CE	; 0x8000ce <__TEXT_REGION_LENGTH__+0x7e00ce>
 1a2:	96 df       	rcall	.-212    	; 0xd0 <putCharacter>
 1a4:	ff 91       	pop	r31
 1a6:	ef 91       	pop	r30
 1a8:	bf 91       	pop	r27
 1aa:	af 91       	pop	r26
 1ac:	9f 91       	pop	r25
 1ae:	8f 91       	pop	r24
 1b0:	7f 91       	pop	r23
 1b2:	6f 91       	pop	r22
 1b4:	5f 91       	pop	r21
 1b6:	4f 91       	pop	r20
 1b8:	3f 91       	pop	r19
 1ba:	2f 91       	pop	r18
 1bc:	0f 90       	pop	r0
 1be:	0f be       	out	0x3f, r0	; 63
 1c0:	0f 90       	pop	r0
 1c2:	1f 90       	pop	r1
 1c4:	18 95       	reti

000001c6 <buzzerON>:
 1c6:	26 9a       	sbi	0x04, 6	; 4
 1c8:	08 95       	ret

000001ca <buzzerOFF>:
 1ca:	84 b1       	in	r24, 0x04	; 4
 1cc:	14 b8       	out	0x04, r1	; 4
 1ce:	08 95       	ret

000001d0 <__vector_32>:
 1d0:	1f 92       	push	r1
 1d2:	0f 92       	push	r0
 1d4:	0f b6       	in	r0, 0x3f	; 63
 1d6:	0f 92       	push	r0
 1d8:	11 24       	eor	r1, r1
 1da:	2f 93       	push	r18
 1dc:	3f 93       	push	r19
 1de:	4f 93       	push	r20
 1e0:	5f 93       	push	r21
 1e2:	6f 93       	push	r22
 1e4:	7f 93       	push	r23
 1e6:	8f 93       	push	r24
 1e8:	9f 93       	push	r25
 1ea:	af 93       	push	r26
 1ec:	bf 93       	push	r27
 1ee:	ef 93       	push	r30
 1f0:	ff 93       	push	r31
 1f2:	80 91 01 01 	lds	r24, 0x0101	; 0x800101 <playableChar>
 1f6:	90 91 02 01 	lds	r25, 0x0102	; 0x800102 <playableChar+0x1>
 1fa:	a0 91 03 01 	lds	r26, 0x0103	; 0x800103 <playableChar+0x2>
 1fe:	b0 91 04 01 	lds	r27, 0x0104	; 0x800104 <playableChar+0x3>
 202:	01 97       	sbiw	r24, 0x01	; 1
 204:	a1 05       	cpc	r26, r1
 206:	b1 05       	cpc	r27, r1
 208:	b9 f5       	brne	.+110    	; 0x278 <__vector_32+0xa8>
 20a:	df df       	rcall	.-66     	; 0x1ca <buzzerOFF>
 20c:	13 9a       	sbi	0x02, 3	; 2
 20e:	80 91 00 01 	lds	r24, 0x0100	; 0x800100 <__data_start>
 212:	81 11       	cpse	r24, r1
 214:	2b c0       	rjmp	.+86     	; 0x26c <__vector_32+0x9c>
 216:	83 e0       	ldi	r24, 0x03	; 3
 218:	80 93 00 01 	sts	0x0100, r24	; 0x800100 <__data_start>
 21c:	90 91 f3 01 	lds	r25, 0x01F3	; 0x8001f3 <inIndex>
 220:	80 91 f2 01 	lds	r24, 0x01F2	; 0x8001f2 <__data_end>
 224:	98 17       	cp	r25, r24
 226:	09 f4       	brne	.+2      	; 0x22a <__vector_32+0x5a>
 228:	4a c0       	rjmp	.+148    	; 0x2be <__vector_32+0xee>
 22a:	e0 91 f2 01 	lds	r30, 0x01F2	; 0x8001f2 <__data_end>
 22e:	84 e0       	ldi	r24, 0x04	; 4
 230:	e8 9f       	mul	r30, r24
 232:	f0 01       	movw	r30, r0
 234:	11 24       	eor	r1, r1
 236:	ec 50       	subi	r30, 0x0C	; 12
 238:	fe 4f       	sbci	r31, 0xFE	; 254
 23a:	80 81       	ld	r24, Z
 23c:	91 81       	ldd	r25, Z+1	; 0x01
 23e:	a2 81       	ldd	r26, Z+2	; 0x02
 240:	b3 81       	ldd	r27, Z+3	; 0x03
 242:	80 93 01 01 	sts	0x0101, r24	; 0x800101 <playableChar>
 246:	90 93 02 01 	sts	0x0102, r25	; 0x800102 <playableChar+0x1>
 24a:	a0 93 03 01 	sts	0x0103, r26	; 0x800103 <playableChar+0x2>
 24e:	b0 93 04 01 	sts	0x0104, r27	; 0x800104 <playableChar+0x3>
 252:	80 91 f2 01 	lds	r24, 0x01F2	; 0x8001f2 <__data_end>
 256:	88 31       	cpi	r24, 0x18	; 24
 258:	19 f4       	brne	.+6      	; 0x260 <__vector_32+0x90>
 25a:	10 92 f2 01 	sts	0x01F2, r1	; 0x8001f2 <__data_end>
 25e:	2f c0       	rjmp	.+94     	; 0x2be <__vector_32+0xee>
 260:	80 91 f2 01 	lds	r24, 0x01F2	; 0x8001f2 <__data_end>
 264:	8f 5f       	subi	r24, 0xFF	; 255
 266:	80 93 f2 01 	sts	0x01F2, r24	; 0x8001f2 <__data_end>
 26a:	29 c0       	rjmp	.+82     	; 0x2be <__vector_32+0xee>
 26c:	80 91 00 01 	lds	r24, 0x0100	; 0x800100 <__data_start>
 270:	81 50       	subi	r24, 0x01	; 1
 272:	80 93 00 01 	sts	0x0100, r24	; 0x800100 <__data_start>
 276:	23 c0       	rjmp	.+70     	; 0x2be <__vector_32+0xee>
 278:	82 b1       	in	r24, 0x02	; 2
 27a:	12 b8       	out	0x02, r1	; 2
 27c:	80 91 01 01 	lds	r24, 0x0101	; 0x800101 <playableChar>
 280:	90 91 02 01 	lds	r25, 0x0102	; 0x800102 <playableChar+0x1>
 284:	a0 91 03 01 	lds	r26, 0x0103	; 0x800103 <playableChar+0x2>
 288:	b0 91 04 01 	lds	r27, 0x0104	; 0x800104 <playableChar+0x3>
 28c:	80 ff       	sbrs	r24, 0
 28e:	02 c0       	rjmp	.+4      	; 0x294 <__vector_32+0xc4>
 290:	9a df       	rcall	.-204    	; 0x1c6 <buzzerON>
 292:	01 c0       	rjmp	.+2      	; 0x296 <__vector_32+0xc6>
 294:	9a df       	rcall	.-204    	; 0x1ca <buzzerOFF>
 296:	80 91 01 01 	lds	r24, 0x0101	; 0x800101 <playableChar>
 29a:	90 91 02 01 	lds	r25, 0x0102	; 0x800102 <playableChar+0x1>
 29e:	a0 91 03 01 	lds	r26, 0x0103	; 0x800103 <playableChar+0x2>
 2a2:	b0 91 04 01 	lds	r27, 0x0104	; 0x800104 <playableChar+0x3>
 2a6:	b6 95       	lsr	r27
 2a8:	a7 95       	ror	r26
 2aa:	97 95       	ror	r25
 2ac:	87 95       	ror	r24
 2ae:	80 93 01 01 	sts	0x0101, r24	; 0x800101 <playableChar>
 2b2:	90 93 02 01 	sts	0x0102, r25	; 0x800102 <playableChar+0x1>
 2b6:	a0 93 03 01 	sts	0x0103, r26	; 0x800103 <playableChar+0x2>
 2ba:	b0 93 04 01 	sts	0x0104, r27	; 0x800104 <playableChar+0x3>
 2be:	80 91 7a 00 	lds	r24, 0x007A	; 0x80007a <__TEXT_REGION_LENGTH__+0x7e007a>
 2c2:	80 64       	ori	r24, 0x40	; 64
 2c4:	80 93 7a 00 	sts	0x007A, r24	; 0x80007a <__TEXT_REGION_LENGTH__+0x7e007a>
 2c8:	92 b1       	in	r25, 0x02	; 2
 2ca:	81 e0       	ldi	r24, 0x01	; 1
 2cc:	89 27       	eor	r24, r25
 2ce:	82 b9       	out	0x02, r24	; 2
 2d0:	ff 91       	pop	r31
 2d2:	ef 91       	pop	r30
 2d4:	bf 91       	pop	r27
 2d6:	af 91       	pop	r26
 2d8:	9f 91       	pop	r25
 2da:	8f 91       	pop	r24
 2dc:	7f 91       	pop	r23
 2de:	6f 91       	pop	r22
 2e0:	5f 91       	pop	r21
 2e2:	4f 91       	pop	r20
 2e4:	3f 91       	pop	r19
 2e6:	2f 91       	pop	r18
 2e8:	0f 90       	pop	r0
 2ea:	0f be       	out	0x3f, r0	; 63
 2ec:	0f 90       	pop	r0
 2ee:	1f 90       	pop	r1
 2f0:	18 95       	reti

000002f2 <getADC>:
}

void getADC(uint16_t value){
	//sets min value
	if(value < 150){
 2f2:	86 39       	cpi	r24, 0x96	; 150
 2f4:	91 05       	cpc	r25, r1
 2f6:	10 f4       	brcc	.+4      	; 0x2fc <getADC+0xa>
		value = 150;
 2f8:	86 e9       	ldi	r24, 0x96	; 150
 2fa:	90 e0       	ldi	r25, 0x00	; 0
	}
	OCR3A = value;
 2fc:	90 93 99 00 	sts	0x0099, r25	; 0x800099 <__TEXT_REGION_LENGTH__+0x7e0099>
 300:	80 93 98 00 	sts	0x0098, r24	; 0x800098 <__TEXT_REGION_LENGTH__+0x7e0098>
 304:	08 95       	ret

00000306 <__vector_29>:
void initADC();
void initPulseCounter();
void initUART();


ISR(ADC_vect){
 306:	1f 92       	push	r1
 308:	0f 92       	push	r0
 30a:	0f b6       	in	r0, 0x3f	; 63
 30c:	0f 92       	push	r0
 30e:	11 24       	eor	r1, r1
 310:	2f 93       	push	r18
 312:	3f 93       	push	r19
 314:	4f 93       	push	r20
 316:	5f 93       	push	r21
 318:	6f 93       	push	r22
 31a:	7f 93       	push	r23
 31c:	8f 93       	push	r24
 31e:	9f 93       	push	r25
 320:	af 93       	push	r26
 322:	bf 93       	push	r27
 324:	ef 93       	push	r30
 326:	ff 93       	push	r31
	uint16_t ADCvalue = ADC;
 328:	80 91 78 00 	lds	r24, 0x0078	; 0x800078 <__TEXT_REGION_LENGTH__+0x7e0078>
 32c:	90 91 79 00 	lds	r25, 0x0079	; 0x800079 <__TEXT_REGION_LENGTH__+0x7e0079>
	getADC(ADCvalue);
 330:	e0 df       	rcall	.-64     	; 0x2f2 <getADC>
}
 332:	ff 91       	pop	r31
 334:	ef 91       	pop	r30
 336:	bf 91       	pop	r27
 338:	af 91       	pop	r26
 33a:	9f 91       	pop	r25
 33c:	8f 91       	pop	r24
 33e:	7f 91       	pop	r23
 340:	6f 91       	pop	r22
 342:	5f 91       	pop	r21
 344:	4f 91       	pop	r20
 346:	3f 91       	pop	r19
 348:	2f 91       	pop	r18
 34a:	0f 90       	pop	r0
 34c:	0f be       	out	0x3f, r0	; 63
 34e:	0f 90       	pop	r0
 350:	1f 90       	pop	r1
 352:	18 95       	reti

00000354 <disableJTAG>:
	}
	OCR3A = value;
}

void disableJTAG(){
	uint8_t j = MCUCR | (1 << JTD);
 354:	85 b7       	in	r24, 0x35	; 53
 356:	80 68       	ori	r24, 0x80	; 128
	MCUCR = j;
 358:	85 bf       	out	0x35, r24	; 53
	MCUCR = j;
 35a:	85 bf       	out	0x35, r24	; 53
 35c:	08 95       	ret

0000035e <enableBuzzerPWM>:
	buzzerOFF();
}

void enableBuzzerPWM(){
	//tc1 for buzzer pwm
	TCCR1A = (1 << COM1B1) | (1 << WGM10); //clear buzzer pin on comp. match - set at TOP, 8-bit fast pwm
 35e:	81 e2       	ldi	r24, 0x21	; 33
 360:	80 93 80 00 	sts	0x0080, r24	; 0x800080 <__TEXT_REGION_LENGTH__+0x7e0080>
	TCCR1B = (1 << WGM12) | (1 << CS11); //clk/8 prescaler
 364:	8a e0       	ldi	r24, 0x0A	; 10
 366:	80 93 81 00 	sts	0x0081, r24	; 0x800081 <__TEXT_REGION_LENGTH__+0x7e0081>
	OCR1B = 30000; //45% duty cycle
 36a:	80 e3       	ldi	r24, 0x30	; 48
 36c:	95 e7       	ldi	r25, 0x75	; 117
 36e:	90 93 8b 00 	sts	0x008B, r25	; 0x80008b <__TEXT_REGION_LENGTH__+0x7e008b>
 372:	80 93 8a 00 	sts	0x008A, r24	; 0x80008a <__TEXT_REGION_LENGTH__+0x7e008a>
 376:	08 95       	ret

00000378 <enableBuzzer>:
	MCUCR = j;
}

void enableBuzzer(){
	//pin b6 as output
	DDRB = (1 << PINB6);
 378:	80 e4       	ldi	r24, 0x40	; 64
 37a:	84 b9       	out	0x04, r24	; 4
	//LED indicator
	DDRA = 0xFF;
 37c:	8f ef       	ldi	r24, 0xFF	; 255
 37e:	81 b9       	out	0x01, r24	; 1
	enableBuzzerPWM();
 380:	ee df       	rcall	.-36     	; 0x35e <enableBuzzerPWM>
	buzzerOFF();
 382:	23 cf       	rjmp	.-442    	; 0x1ca <buzzerOFF>

00000384 <initADC>:
 384:	82 e4       	ldi	r24, 0x42	; 66
	TCCR1B = (1 << WGM12) | (1 << CS11); //clk/8 prescaler
	OCR1B = 30000; //45% duty cycle
}

void initADC(){
	ADMUX = (1 << REFS0) | (1 << MUX1); //
 386:	80 93 7c 00 	sts	0x007C, r24	; 0x80007c <__TEXT_REGION_LENGTH__+0x7e007c>
	ADCSRA = (1 << ADEN) | (1 << ADSC) | (1 << ADIE) | (1 << ADPS2);
 38a:	8c ec       	ldi	r24, 0xCC	; 204
 38c:	80 93 7a 00 	sts	0x007A, r24	; 0x80007a <__TEXT_REGION_LENGTH__+0x7e007a>
 390:	08 95       	ret

00000392 <initPulseCounter>:
}

void initPulseCounter(){
	TCCR3B = (1 << WGM32) | (1 << CS32) | (1 << CS30);
 392:	8d e0       	ldi	r24, 0x0D	; 13
 394:	80 93 91 00 	sts	0x0091, r24	; 0x800091 <__TEXT_REGION_LENGTH__+0x7e0091>
	TIMSK3 = (1 << OCIE3A);
 398:	82 e0       	ldi	r24, 0x02	; 2
 39a:	80 93 71 00 	sts	0x0071, r24	; 0x800071 <__TEXT_REGION_LENGTH__+0x7e0071>
	OCR3A = 100;
 39e:	84 e6       	ldi	r24, 0x64	; 100
 3a0:	90 e0       	ldi	r25, 0x00	; 0
 3a2:	90 93 99 00 	sts	0x0099, r25	; 0x800099 <__TEXT_REGION_LENGTH__+0x7e0099>
 3a6:	80 93 98 00 	sts	0x0098, r24	; 0x800098 <__TEXT_REGION_LENGTH__+0x7e0098>
 3aa:	08 95       	ret

000003ac <initUART>:
}

void initUART(){
	UBRR1 = UBRR_VAL; //9600 baud
 3ac:	8c e0       	ldi	r24, 0x0C	; 12
 3ae:	90 e0       	ldi	r25, 0x00	; 0
 3b0:	90 93 cd 00 	sts	0x00CD, r25	; 0x8000cd <__TEXT_REGION_LENGTH__+0x7e00cd>
 3b4:	80 93 cc 00 	sts	0x00CC, r24	; 0x8000cc <__TEXT_REGION_LENGTH__+0x7e00cc>
	UCSR1B = (1 << RXCIE1) | (1 << RXEN1);
 3b8:	80 e9       	ldi	r24, 0x90	; 144
 3ba:	80 93 c9 00 	sts	0x00C9, r24	; 0x8000c9 <__TEXT_REGION_LENGTH__+0x7e00c9>
	UCSR1C = (1 << UCSZ11) | (1 << UCSZ10);
 3be:	86 e0       	ldi	r24, 0x06	; 6
 3c0:	80 93 ca 00 	sts	0x00CA, r24	; 0x8000ca <__TEXT_REGION_LENGTH__+0x7e00ca>
 3c4:	08 95       	ret

000003c6 <main>:
	uint8_t inByte = UDR1;
	putCharacter(inByte);
}

int main(void){
	disableJTAG();
 3c6:	c6 df       	rcall	.-116    	; 0x354 <disableJTAG>
    enableBuzzer();
 3c8:	d7 df       	rcall	.-82     	; 0x378 <enableBuzzer>
	initADC();
 3ca:	dc df       	rcall	.-72     	; 0x384 <initADC>
	initPulseCounter();
 3cc:	e2 df       	rcall	.-60     	; 0x392 <initPulseCounter>
 3ce:	ee df       	rcall	.-36     	; 0x3ac <initUART>
	initUART();
 3d0:	78 94       	sei
 3d2:	80 91 7a 00 	lds	r24, 0x007A	; 0x80007a <__TEXT_REGION_LENGTH__+0x7e007a>

	sei();
	ADCSRA |= (1 << ADSC); //Start ADC measurement
 3d6:	80 64       	ori	r24, 0x40	; 64
 3d8:	80 93 7a 00 	sts	0x007A, r24	; 0x80007a <__TEXT_REGION_LENGTH__+0x7e007a>
 3dc:	ff cf       	rjmp	.-2      	; 0x3dc <main+0x16>

000003de <_exit>:
 3de:	f8 94       	cli

000003e0 <__stop_program>:
 3e0:	ff cf       	rjmp	.-2      	; 0x3e0 <__stop_program>
